{
  "contractName": "Airdrop",
  "abi": [
    {
      "constant": false,
      "inputs": [
        {
          "name": "rootChainBlockNumber",
          "type": "uint256"
        },
        {
          "name": "account",
          "type": "address"
        },
        {
          "name": "balance",
          "type": "uint256"
        },
        {
          "name": "proof",
          "type": "bytes32[]"
        }
      ],
      "name": "proveSidechainBalance",
      "outputs": [],
      "payable": false,
      "stateMutability": "nonpayable",
      "type": "function"
    },
    {
      "constant": false,
      "inputs": [],
      "name": "claimOwnership",
      "outputs": [],
      "payable": false,
      "stateMutability": "nonpayable",
      "type": "function"
    },
    {
      "constant": false,
      "inputs": [
        {
          "name": "rootChainBlockNumber",
          "type": "uint256"
        },
        {
          "name": "rootHash",
          "type": "bytes32"
        },
        {
          "name": "ipfsHash",
          "type": "string"
        }
      ],
      "name": "recordBlock",
      "outputs": [],
      "payable": false,
      "stateMutability": "nonpayable",
      "type": "function"
    },
    {
      "constant": true,
      "inputs": [
        {
          "name": "hash",
          "type": "bytes32"
        },
        {
          "name": "others",
          "type": "bytes32[]"
        }
      ],
      "name": "calculateRootHash",
      "outputs": [
        {
          "name": "root",
          "type": "bytes32"
        }
      ],
      "payable": false,
      "stateMutability": "pure",
      "type": "function"
    },
    {
      "constant": true,
      "inputs": [
        {
          "name": "",
          "type": "address"
        }
      ],
      "name": "withdrawn",
      "outputs": [
        {
          "name": "",
          "type": "uint256"
        }
      ],
      "payable": false,
      "stateMutability": "view",
      "type": "function"
    },
    {
      "constant": true,
      "inputs": [],
      "name": "blockFreezeSeconds",
      "outputs": [
        {
          "name": "",
          "type": "uint256"
        }
      ],
      "payable": false,
      "stateMutability": "view",
      "type": "function"
    },
    {
      "constant": true,
      "inputs": [
        {
          "name": "",
          "type": "uint256"
        }
      ],
      "name": "blockTimestamp",
      "outputs": [
        {
          "name": "",
          "type": "uint256"
        }
      ],
      "payable": false,
      "stateMutability": "view",
      "type": "function"
    },
    {
      "constant": true,
      "inputs": [
        {
          "name": "",
          "type": "uint256"
        }
      ],
      "name": "blockHash",
      "outputs": [
        {
          "name": "",
          "type": "bytes32"
        }
      ],
      "payable": false,
      "stateMutability": "view",
      "type": "function"
    },
    {
      "constant": true,
      "inputs": [],
      "name": "owner",
      "outputs": [
        {
          "name": "",
          "type": "address"
        }
      ],
      "payable": false,
      "stateMutability": "view",
      "type": "function"
    },
    {
      "constant": true,
      "inputs": [
        {
          "name": "rootChainBlockNumber",
          "type": "uint256"
        },
        {
          "name": "account",
          "type": "address"
        },
        {
          "name": "balance",
          "type": "uint256"
        },
        {
          "name": "proof",
          "type": "bytes32[]"
        }
      ],
      "name": "proofIsCorrect",
      "outputs": [
        {
          "name": "",
          "type": "bool"
        }
      ],
      "payable": false,
      "stateMutability": "view",
      "type": "function"
    },
    {
      "constant": true,
      "inputs": [],
      "name": "pendingOwner",
      "outputs": [
        {
          "name": "",
          "type": "address"
        }
      ],
      "payable": false,
      "stateMutability": "view",
      "type": "function"
    },
    {
      "constant": false,
      "inputs": [
        {
          "name": "newOwner",
          "type": "address"
        }
      ],
      "name": "transferOwnership",
      "outputs": [],
      "payable": false,
      "stateMutability": "nonpayable",
      "type": "function"
    },
    {
      "constant": true,
      "inputs": [],
      "name": "token",
      "outputs": [
        {
          "name": "",
          "type": "address"
        }
      ],
      "payable": false,
      "stateMutability": "view",
      "type": "function"
    },
    {
      "inputs": [
        {
          "name": "tokenAddress",
          "type": "address"
        },
        {
          "name": "blockFreezePeriodSeconds",
          "type": "uint256"
        }
      ],
      "payable": false,
      "stateMutability": "nonpayable",
      "type": "constructor"
    },
    {
      "anonymous": false,
      "inputs": [
        {
          "indexed": true,
          "name": "previousOwner",
          "type": "address"
        },
        {
          "indexed": true,
          "name": "newOwner",
          "type": "address"
        }
      ],
      "name": "OwnershipTransferred",
      "type": "event"
    },
    {
      "anonymous": false,
      "inputs": [
        {
          "indexed": false,
          "name": "rootChainBlockNumber",
          "type": "uint256"
        },
        {
          "indexed": false,
          "name": "timestamp",
          "type": "uint256"
        },
        {
          "indexed": false,
          "name": "rootHash",
          "type": "bytes32"
        },
        {
          "indexed": false,
          "name": "ipfsHash",
          "type": "string"
        }
      ],
      "name": "BlockCreated",
      "type": "event"
    }
  ],
  "bytecode": "0x608060405234801561001057600080fd5b50604051604080611384833981018060405281019080805190602001909291908051906020019092919050505080806000819055505033600360006101000a81548173ffffffffffffffffffffffffffffffffffffffff021916908373ffffffffffffffffffffffffffffffffffffffff16021790555081600560006101000a81548173ffffffffffffffffffffffffffffffffffffffff021916908373ffffffffffffffffffffffffffffffffffffffff16021790555050506112ab806100d96000396000f3006080604052600436106100c5576000357c0100000000000000000000000000000000000000000000000000000000900463ffffffff168063230b394a146100ca5780634e71e0c81461016457806356db43131461017b5780636dd4a7c9146101ce5780636ef610921461025e57806371b15013146102b557806373d8903b146102e057806385df51fd146103215780638da5cb5b1461036a578063cb9b51c8146103c1578063e30c397814610473578063f2fde38b146104ca578063fc0c546a1461050d575b600080fd5b3480156100d657600080fd5b5061016260048036038101908080359060200190929190803573ffffffffffffffffffffffffffffffffffffffff1690602001909291908035906020019092919080359060200190820180359060200190808060200260200160405190810160405280939291908181526020018383602002808284378201915050505050509192919290505050610564565b005b34801561017057600080fd5b50610179610688565b005b34801561018757600080fd5b506101cc600480360381019080803590602001909291908035600019169060200190929190803590602001908201803590602001919091929391929390505050610892565b005b3480156101da57600080fd5b50610240600480360381019080803560001916906020019092919080359060200190820180359060200190808060200260200160405190810160405280939291908181526020018383602002808284378201915050505050509192919290505050610a3f565b60405180826000191660001916815260200191505060405180910390f35b34801561026a57600080fd5b5061029f600480360381019080803573ffffffffffffffffffffffffffffffffffffffff169060200190929190505050610bee565b6040518082815260200191505060405180910390f35b3480156102c157600080fd5b506102ca610c06565b6040518082815260200191505060405180910390f35b3480156102ec57600080fd5b5061030b60048036038101908080359060200190929190505050610c0c565b6040518082815260200191505060405180910390f35b34801561032d57600080fd5b5061034c60048036038101908080359060200190929190505050610c24565b60405180826000191660001916815260200191505060405180910390f35b34801561037657600080fd5b5061037f610c3c565b604051808273ffffffffffffffffffffffffffffffffffffffff1673ffffffffffffffffffffffffffffffffffffffff16815260200191505060405180910390f35b3480156103cd57600080fd5b5061045960048036038101908080359060200190929190803573ffffffffffffffffffffffffffffffffffffffff1690602001909291908035906020019092919080359060200190820180359060200190808060200260200160405190810160405280939291908181526020018383602002808284378201915050505050509192919290505050610c62565b604051808215151515815260200191505060405180910390f35b34801561047f57600080fd5b50610488610de4565b604051808273ffffffffffffffffffffffffffffffffffffffff1673ffffffffffffffffffffffffffffffffffffffff16815260200191505060405180910390f35b3480156104d657600080fd5b5061050b600480360381019080803573ffffffffffffffffffffffffffffffffffffffff169060200190929190505050610e0a565b005b34801561051957600080fd5b50610522610f13565b604051808273ffffffffffffffffffffffffffffffffffffffff1673ffffffffffffffffffffffffffffffffffffffff16815260200191505060405180910390f35b6000600260008681526020019081526020016000205490506000548101421115156105f7576040517f08c379a000000000000000000000000000000000000000000000000000000000815260040180806020018281038252600c8152602001807f6572726f725f66726f7a656e000000000000000000000000000000000000000081525060200191505060405180910390fd5b61060385858585610c62565b1515610677576040517f08c379a000000000000000000000000000000000000000000000000000000000815260040180806020018281038252600b8152602001807f6572726f725f70726f6f6600000000000000000000000000000000000000000081525060200191505060405180910390fd5b6106818484610f39565b5050505050565b600460009054906101000a900473ffffffffffffffffffffffffffffffffffffffff1673ffffffffffffffffffffffffffffffffffffffff163373ffffffffffffffffffffffffffffffffffffffff1614151561074d576040517f08c379a00000000000000000000000000000000000000000000000000000000081526004018080602001828103825260108152602001807f6f6e6c7950656e64696e674f776e65720000000000000000000000000000000081525060200191505060405180910390fd5b600460009054906101000a900473ffffffffffffffffffffffffffffffffffffffff1673ffffffffffffffffffffffffffffffffffffffff16600360009054906101000a900473ffffffffffffffffffffffffffffffffffffffff1673ffffffffffffffffffffffffffffffffffffffff167f8be0079c531659141344cd1fd0a4f28419497f9722a3daafe3b4186f6b6457e060405160405180910390a3600460009054906101000a900473ffffffffffffffffffffffffffffffffffffffff16600360006101000a81548173ffffffffffffffffffffffffffffffffffffffff021916908373ffffffffffffffffffffffffffffffffffffffff1602179055506000600460006101000a81548173ffffffffffffffffffffffffffffffffffffffff021916908373ffffffffffffffffffffffffffffffffffffffff160217905550565b606082828080601f01602080910402602001604051908101604052809392919081815260200183838082843782019150505050505090506108d4858583611202565b1515610948576040517f08c379a00000000000000000000000000000000000000000000000000000000081526004018080602001828103825260128152602001807f6572726f725f6e6f745065726d6974746564000000000000000000000000000081525060200191505060405180910390fd5b426002600087815260200190815260200160002081905550836001600087815260200190815260200160002081600019169055507f7ef0f736c45ddbabe72b264d65ca088383fb45bcd5511b52df923b4580c9aaa08542868460405180858152602001848152602001836000191660001916815260200180602001828103825283818151815260200191508051906020019080838360005b838110156109fb5780820151818401526020810190506109e0565b50505050905090810190601f168015610a285780820380516001836020036101000a031916815260200191505b509550505050505060405180910390a15050505050565b6000806000849250600091505b83518260ff161015610be657838260ff16815181101515610a6957fe5b906020019060200201519050600060010281600019161415610a8a57610bd9565b806000191683600019161015610b3b5782816040516020018083600019166000191681526020018260001916600019168152602001925050506040516020818303038152906040526040518082805190602001908083835b602083101515610b075780518252602082019150602081019050602083039250610ae2565b6001836020036101000a03801982511681845116808217855250505050505090500191505060405180910390209250610bd8565b80836040516020018083600019166000191681526020018260001916600019168152602001925050506040516020818303038152906040526040518082805190602001908083835b602083101515610ba85780518252602082019150602081019050602083039250610b83565b6001836020036101000a038019825116818451168082178552505050505050905001915050604051809103902092505b5b8180600101925050610a4c565b505092915050565b60066020528060005260406000206000915090505481565b60005481565b60026020528060005260406000206000915090505481565b60016020528060005260406000206000915090505481565b600360009054906101000a900473ffffffffffffffffffffffffffffffffffffffff1681565b60008060008585604051602001808373ffffffffffffffffffffffffffffffffffffffff1673ffffffffffffffffffffffffffffffffffffffff166c01000000000000000000000000028152601401828152602001925050506040516020818303038152906040526040518082805190602001908083835b602083101515610cff5780518252602082019150602081019050602083039250610cda565b6001836020036101000a03801982511681845116808217855250505050505090500191505060405180910390209150600160008881526020019081526020016000205490506000600102816000191614151515610dc4576040517f08c379a00000000000000000000000000000000000000000000000000000000081526004018080602001828103825260138152602001807f6572726f725f626c6f636b4e6f74466f756e640000000000000000000000000081525060200191505060405180910390fd5b610dce8285610a3f565b6000191681600019161492505050949350505050565b600460009054906101000a900473ffffffffffffffffffffffffffffffffffffffff1681565b600360009054906101000a900473ffffffffffffffffffffffffffffffffffffffff1673ffffffffffffffffffffffffffffffffffffffff163373ffffffffffffffffffffffffffffffffffffffff16141515610ecf576040517f08c379a00000000000000000000000000000000000000000000000000000000081526004018080602001828103825260098152602001807f6f6e6c794f776e6572000000000000000000000000000000000000000000000081525060200191505060405180910390fd5b80600460006101000a81548173ffffffffffffffffffffffffffffffffffffffff021916908373ffffffffffffffffffffffffffffffffffffffff16021790555050565b600560009054906101000a900473ffffffffffffffffffffffffffffffffffffffff1681565b600081600660008573ffffffffffffffffffffffffffffffffffffffff1673ffffffffffffffffffffffffffffffffffffffff16815260200190815260200160002054101515610ff1576040517f08c379a000000000000000000000000000000000000000000000000000000000815260040180806020018281038252600f8152602001807f6572725f6f6c644561726e696e6773000000000000000000000000000000000081525060200191505060405180910390fd5b611043600660008573ffffffffffffffffffffffffffffffffffffffff1673ffffffffffffffffffffffffffffffffffffffff168152602001908152602001600020548361125e90919063ffffffff16565b905081600660008573ffffffffffffffffffffffffffffffffffffffff1673ffffffffffffffffffffffffffffffffffffffff16815260200190815260200160002081905550600560009054906101000a900473ffffffffffffffffffffffffffffffffffffffff1673ffffffffffffffffffffffffffffffffffffffff166340c10f1984836040518363ffffffff167c0100000000000000000000000000000000000000000000000000000000028152600401808373ffffffffffffffffffffffffffffffffffffffff1673ffffffffffffffffffffffffffffffffffffffff16815260200182815260200192505050602060405180830381600087803b15801561114e57600080fd5b505af1158015611162573d6000803e3d6000fd5b505050506040513d602081101561117857600080fd5b810190808051906020019092919050505015156111fd576040517f08c379a000000000000000000000000000000000000000000000000000000000815260040180806020018281038252600c8152602001807f6572725f7472616e73666572000000000000000000000000000000000000000081525060200191505060405180910390fd5b505050565b6000600360009054906101000a900473ffffffffffffffffffffffffffffffffffffffff1673ffffffffffffffffffffffffffffffffffffffff163373ffffffffffffffffffffffffffffffffffffffff161490509392505050565b60008083831115151561127057600080fd5b828403905080915050929150505600a165627a7a723058207a73a7158eb1fff3b22bb0349b3eac60af7ab18785c111be98dfdb4dbcefbb2c0029",
  "source": "pragma solidity ^0.4.24;\n\nimport \"openzeppelin-solidity/contracts/math/SafeMath.sol\";\nimport \"openzeppelin-solidity/contracts/token/ERC20/ERC20Mintable.sol\";\n\nimport \"./AbstractRootChain.sol\";\nimport \"./Ownable.sol\";\n\n/**\n * Continuous airdrop where recipients can withdraw tokens allocated in side-chain.\n * Dropped tokens are minted, not deposited in advance.\n */\ncontract Airdrop is AbstractRootChain, Ownable {\n    using SafeMath for uint256;\n\n    ERC20Mintable public token;\n    mapping (address => uint) public withdrawn;\n\n    constructor(address tokenAddress, uint blockFreezePeriodSeconds)\n        AbstractRootChain(blockFreezePeriodSeconds)\n        Ownable() public {\n        token = ERC20Mintable(tokenAddress);\n    }\n\n    /**\n     * Owner creates the side-chain blocks\n     */\n    function canRecordBlock(uint, bytes32, string) internal returns (bool) {\n        return msg.sender == owner;\n    }\n\n    /**\n     * Called from AbstractRootChain.proveSidechainBalance, perform payout directly\n     */\n    function onVerifySuccess(address account, uint balance) internal {\n        require(withdrawn[account] < balance, \"err_oldEarnings\");\n        uint withdrawable = balance.sub(withdrawn[account]);\n        withdrawn[account] = balance;\n        require(token.mint(account, withdrawable), \"err_transfer\");\n    }\n}\n",
  "sourcePath": "/Users/mthambipillai/Desktop/Streamr/monoplasma/contracts/Mintdrop.sol",
  "compiler": {
    "name": "solc",
    "version": "0.4.25+commit.59dbf8f1.Emscripten.clang"
  },
  "schemaVersion": "3.0.0-beta.2",
  "updatedAt": "2018-12-20T08:40:52.476Z",
  "devdoc": {
    "methods": {
      "calculateRootHash(bytes32,bytes32[])": {
        "params": {
          "hash": "of the leaf to verify",
          "others": "list of hashes of \"other\" branches"
        }
      },
      "claimOwnership()": {
        "details": "Allows the pendingOwner address to finalize the transfer."
      },
      "proveSidechainBalance(uint256,address,uint256,bytes32[])": {
        "params": {
          "account": "whose balances will be verified",
          "balance": "side-chain account balance",
          "proof": "list of hashes to prove the totalEarnings",
          "rootChainBlockNumber": "the block \"after\" which the balances were recorded"
        }
      },
      "recordBlock(uint256,bytes32,string)": {
        "params": {
          "ipfsHash": "where the whole balances object can be retrieved in JSON format",
          "rootChainBlockNumber": "the block \"after\" which the balances were recorded",
          "rootHash": "root of the balances merkle-tree"
        }
      },
      "transferOwnership(address)": {
        "details": "Allows the current owner to set the pendingOwner address.",
        "params": {
          "newOwner": "The address to transfer ownership to."
        }
      }
    }
  },
  "userdoc": {
    "methods": {
      "calculateRootHash(bytes32,bytes32[])": {
        "notice": "Calculate root hash of a Merkle tree, given"
      },
      "proofIsCorrect(uint256,address,uint256,bytes32[])": {
        "notice": "Check the merkle proof of balance in the given side-chain block for given account"
      },
      "proveSidechainBalance(uint256,address,uint256,bytes32[])": {
        "notice": "proveSidechainBalance can be used to record the sidechain balances into root chain"
      },
      "recordBlock(uint256,bytes32,string)": {
        "notice": "For convenience, also publish the ipfsHash of the balance book JSON object"
      }
    }
  }
}