{
  "contractName": "Monoplasma",
  "abi": [
    {
      "constant": true,
      "inputs": [],
      "name": "recipientCount",
      "outputs": [
        {
          "name": "",
          "type": "uint256"
        }
      ],
      "payable": false,
      "stateMutability": "view",
      "type": "function",
      "signature": "0x22eabb8e"
    },
    {
      "constant": false,
      "inputs": [
        {
          "name": "rootChainBlockNumber",
          "type": "uint256"
        },
        {
          "name": "account",
          "type": "address"
        },
        {
          "name": "balance",
          "type": "uint256"
        },
        {
          "name": "proof",
          "type": "bytes32[]"
        }
      ],
      "name": "proveSidechainBalance",
      "outputs": [],
      "payable": false,
      "stateMutability": "nonpayable",
      "type": "function",
      "signature": "0x230b394a"
    },
    {
      "constant": false,
      "inputs": [],
      "name": "claimOwnership",
      "outputs": [],
      "payable": false,
      "stateMutability": "nonpayable",
      "type": "function",
      "signature": "0x4e71e0c8"
    },
    {
      "constant": true,
      "inputs": [
        {
          "name": "",
          "type": "address"
        }
      ],
      "name": "earnings",
      "outputs": [
        {
          "name": "",
          "type": "uint256"
        }
      ],
      "payable": false,
      "stateMutability": "view",
      "type": "function",
      "signature": "0x543fd313"
    },
    {
      "constant": false,
      "inputs": [
        {
          "name": "rootChainBlockNumber",
          "type": "uint256"
        },
        {
          "name": "rootHash",
          "type": "bytes32"
        },
        {
          "name": "ipfsHash",
          "type": "string"
        }
      ],
      "name": "recordBlock",
      "outputs": [],
      "payable": false,
      "stateMutability": "nonpayable",
      "type": "function",
      "signature": "0x56db4313"
    },
    {
      "constant": true,
      "inputs": [
        {
          "name": "hash",
          "type": "bytes32"
        },
        {
          "name": "others",
          "type": "bytes32[]"
        }
      ],
      "name": "calculateRootHash",
      "outputs": [
        {
          "name": "root",
          "type": "bytes32"
        }
      ],
      "payable": false,
      "stateMutability": "pure",
      "type": "function",
      "signature": "0x6dd4a7c9"
    },
    {
      "constant": true,
      "inputs": [
        {
          "name": "",
          "type": "address"
        }
      ],
      "name": "withdrawn",
      "outputs": [
        {
          "name": "",
          "type": "uint256"
        }
      ],
      "payable": false,
      "stateMutability": "view",
      "type": "function",
      "signature": "0x6ef61092"
    },
    {
      "constant": true,
      "inputs": [],
      "name": "blockFreezeSeconds",
      "outputs": [
        {
          "name": "",
          "type": "uint256"
        }
      ],
      "payable": false,
      "stateMutability": "view",
      "type": "function",
      "signature": "0x71b15013"
    },
    {
      "constant": true,
      "inputs": [
        {
          "name": "",
          "type": "uint256"
        }
      ],
      "name": "blockTimestamp",
      "outputs": [
        {
          "name": "",
          "type": "uint256"
        }
      ],
      "payable": false,
      "stateMutability": "view",
      "type": "function",
      "signature": "0x73d8903b"
    },
    {
      "constant": true,
      "inputs": [
        {
          "name": "",
          "type": "uint256"
        }
      ],
      "name": "blockHash",
      "outputs": [
        {
          "name": "",
          "type": "bytes32"
        }
      ],
      "payable": false,
      "stateMutability": "view",
      "type": "function",
      "signature": "0x85df51fd"
    },
    {
      "constant": true,
      "inputs": [],
      "name": "owner",
      "outputs": [
        {
          "name": "",
          "type": "address"
        }
      ],
      "payable": false,
      "stateMutability": "view",
      "type": "function",
      "signature": "0x8da5cb5b"
    },
    {
      "constant": true,
      "inputs": [
        {
          "name": "",
          "type": "address"
        }
      ],
      "name": "isActive",
      "outputs": [
        {
          "name": "",
          "type": "bool"
        }
      ],
      "payable": false,
      "stateMutability": "view",
      "type": "function",
      "signature": "0x9f8a13d7"
    },
    {
      "constant": true,
      "inputs": [
        {
          "name": "rootChainBlockNumber",
          "type": "uint256"
        },
        {
          "name": "account",
          "type": "address"
        },
        {
          "name": "balance",
          "type": "uint256"
        },
        {
          "name": "proof",
          "type": "bytes32[]"
        }
      ],
      "name": "proofIsCorrect",
      "outputs": [
        {
          "name": "",
          "type": "bool"
        }
      ],
      "payable": false,
      "stateMutability": "view",
      "type": "function",
      "signature": "0xcb9b51c8"
    },
    {
      "constant": true,
      "inputs": [],
      "name": "pendingOwner",
      "outputs": [
        {
          "name": "",
          "type": "address"
        }
      ],
      "payable": false,
      "stateMutability": "view",
      "type": "function",
      "signature": "0xe30c3978"
    },
    {
      "constant": false,
      "inputs": [
        {
          "name": "newOwner",
          "type": "address"
        }
      ],
      "name": "transferOwnership",
      "outputs": [],
      "payable": false,
      "stateMutability": "nonpayable",
      "type": "function",
      "signature": "0xf2fde38b"
    },
    {
      "constant": true,
      "inputs": [],
      "name": "token",
      "outputs": [
        {
          "name": "",
          "type": "address"
        }
      ],
      "payable": false,
      "stateMutability": "view",
      "type": "function",
      "signature": "0xfc0c546a"
    },
    {
      "inputs": [
        {
          "name": "tokenAddress",
          "type": "address"
        },
        {
          "name": "blockFreezePeriodSeconds",
          "type": "uint256"
        }
      ],
      "payable": false,
      "stateMutability": "nonpayable",
      "type": "constructor",
      "signature": "constructor"
    },
    {
      "anonymous": false,
      "inputs": [
        {
          "indexed": false,
          "name": "recipient",
          "type": "address"
        }
      ],
      "name": "RecipientAdded",
      "type": "event",
      "signature": "0x4205b1cf2b33c8147cc02b8fb0c9d3ff098218a686b0dd94b1e35d3c3968ad8c"
    },
    {
      "anonymous": false,
      "inputs": [
        {
          "indexed": false,
          "name": "recipient",
          "type": "address"
        }
      ],
      "name": "RecipientRemoved",
      "type": "event",
      "signature": "0x8176fc5412eb5076fee7f1a264915b808c24d495c2698c189030e5200e707d25"
    },
    {
      "anonymous": false,
      "inputs": [
        {
          "indexed": true,
          "name": "previousOwner",
          "type": "address"
        },
        {
          "indexed": true,
          "name": "newOwner",
          "type": "address"
        }
      ],
      "name": "OwnershipTransferred",
      "type": "event",
      "signature": "0x8be0079c531659141344cd1fd0a4f28419497f9722a3daafe3b4186f6b6457e0"
    },
    {
      "anonymous": false,
      "inputs": [
        {
          "indexed": false,
          "name": "rootChainBlockNumber",
          "type": "uint256"
        },
        {
          "indexed": false,
          "name": "timestamp",
          "type": "uint256"
        },
        {
          "indexed": false,
          "name": "rootHash",
          "type": "bytes32"
        },
        {
          "indexed": false,
          "name": "ipfsHash",
          "type": "string"
        }
      ],
      "name": "BlockCreated",
      "type": "event",
      "signature": "0x7ef0f736c45ddbabe72b264d65ca088383fb45bcd5511b52df923b4580c9aaa0"
    },
    {
      "constant": false,
      "inputs": [
        {
          "name": "addr",
          "type": "address"
        }
      ],
      "name": "addRecipient",
      "outputs": [],
      "payable": false,
      "stateMutability": "nonpayable",
      "type": "function",
      "signature": "0x1c3101d3"
    },
    {
      "constant": false,
      "inputs": [
        {
          "name": "addr",
          "type": "address"
        }
      ],
      "name": "removeRecipient",
      "outputs": [],
      "payable": false,
      "stateMutability": "nonpayable",
      "type": "function",
      "signature": "0x12a29198"
    },
    {
      "constant": false,
      "inputs": [
        {
          "name": "blockTimestamp",
          "type": "uint256"
        },
        {
          "name": "totalEarnings",
          "type": "uint256"
        },
        {
          "name": "proof",
          "type": "bytes32[]"
        }
      ],
      "name": "withdrawAll",
      "outputs": [],
      "payable": false,
      "stateMutability": "nonpayable",
      "type": "function",
      "signature": "0x4942e4cf"
    },
    {
      "constant": false,
      "inputs": [
        {
          "name": "amount",
          "type": "uint256"
        }
      ],
      "name": "withdraw",
      "outputs": [],
      "payable": false,
      "stateMutability": "nonpayable",
      "type": "function",
      "signature": "0x2e1a7d4d"
    }
  ],
  "bytecode": "0x608060405234801561001057600080fd5b50604051604080611cd0833981018060405281019080805190602001909291908051906020019092919050505080806000819055505033600360006101000a81548173ffffffffffffffffffffffffffffffffffffffff021916908373ffffffffffffffffffffffffffffffffffffffff16021790555081600960006101000a81548173ffffffffffffffffffffffffffffffffffffffff021916908373ffffffffffffffffffffffffffffffffffffffff1602179055505050611bf7806100d96000396000f300608060405260043610610112576000357c0100000000000000000000000000000000000000000000000000000000900463ffffffff16806312a29198146101175780631c3101d31461015a57806322eabb8e1461019d578063230b394a146101c85780632e1a7d4d146102625780634942e4cf1461028f5780634e71e0c8146102de578063543fd313146102f557806356db43131461034c5780636dd4a7c91461039f5780636ef610921461042f57806371b150131461048657806373d8903b146104b157806385df51fd146104f25780638da5cb5b1461053b5780639f8a13d714610592578063cb9b51c8146105ed578063e30c39781461069f578063f2fde38b146106f6578063fc0c546a14610739575b600080fd5b34801561012357600080fd5b50610158600480360381019080803573ffffffffffffffffffffffffffffffffffffffff169060200190929190505050610790565b005b34801561016657600080fd5b5061019b600480360381019080803573ffffffffffffffffffffffffffffffffffffffff1690602001909291905050506109e5565b005b3480156101a957600080fd5b506101b2610c3b565b6040518082815260200191505060405180910390f35b3480156101d457600080fd5b5061026060048036038101908080359060200190929190803573ffffffffffffffffffffffffffffffffffffffff1690602001909291908035906020019092919080359060200190820180359060200190808060200260200160405190810160405280939291908181526020018383602002808284378201915050505050509192919290505050610c41565b005b34801561026e57600080fd5b5061028d60048036038101908080359060200190929190505050610d65565b005b34801561029b57600080fd5b506102dc60048036038101908080359060200190929190803590602001909291908035906020019082018035906020019190919293919293905050506110a5565b005b3480156102ea57600080fd5b506102f3611146565b005b34801561030157600080fd5b50610336600480360381019080803573ffffffffffffffffffffffffffffffffffffffff169060200190929190505050611350565b6040518082815260200191505060405180910390f35b34801561035857600080fd5b5061039d600480360381019080803590602001909291908035600019169060200190929190803590602001908201803590602001919091929391929390505050611368565b005b3480156103ab57600080fd5b50610411600480360381019080803560001916906020019092919080359060200190820180359060200190808060200260200160405190810160405280939291908181526020018383602002808284378201915050505050509192919290505050611515565b60405180826000191660001916815260200191505060405180910390f35b34801561043b57600080fd5b50610470600480360381019080803573ffffffffffffffffffffffffffffffffffffffff1690602001909291905050506116c4565b6040518082815260200191505060405180910390f35b34801561049257600080fd5b5061049b6116dc565b6040518082815260200191505060405180910390f35b3480156104bd57600080fd5b506104dc600480360381019080803590602001909291905050506116e2565b6040518082815260200191505060405180910390f35b3480156104fe57600080fd5b5061051d600480360381019080803590602001909291905050506116fa565b60405180826000191660001916815260200191505060405180910390f35b34801561054757600080fd5b50610550611712565b604051808273ffffffffffffffffffffffffffffffffffffffff1673ffffffffffffffffffffffffffffffffffffffff16815260200191505060405180910390f35b34801561059e57600080fd5b506105d3600480360381019080803573ffffffffffffffffffffffffffffffffffffffff169060200190929190505050611738565b604051808215151515815260200191505060405180910390f35b3480156105f957600080fd5b5061068560048036038101908080359060200190929190803573ffffffffffffffffffffffffffffffffffffffff1690602001909291908035906020019092919080359060200190820180359060200190808060200260200160405190810160405280939291908181526020018383602002808284378201915050505050509192919290505050611758565b604051808215151515815260200191505060405180910390f35b3480156106ab57600080fd5b506106b46118da565b604051808273ffffffffffffffffffffffffffffffffffffffff1673ffffffffffffffffffffffffffffffffffffffff16815260200191505060405180910390f35b34801561070257600080fd5b50610737600480360381019080803573ffffffffffffffffffffffffffffffffffffffff169060200190929190505050611900565b005b34801561074557600080fd5b5061074e611a09565b604051808273ffffffffffffffffffffffffffffffffffffffff1673ffffffffffffffffffffffffffffffffffffffff16815260200191505060405180910390f35b600360009054906101000a900473ffffffffffffffffffffffffffffffffffffffff1673ffffffffffffffffffffffffffffffffffffffff163373ffffffffffffffffffffffffffffffffffffffff16141515610855576040517f08c379a00000000000000000000000000000000000000000000000000000000081526004018080602001828103825260098152602001807f6f6e6c794f776e6572000000000000000000000000000000000000000000000081525060200191505060405180910390fd5b600860008273ffffffffffffffffffffffffffffffffffffffff1673ffffffffffffffffffffffffffffffffffffffff16815260200190815260200160002060009054906101000a900460ff161515610916576040517f08c379a000000000000000000000000000000000000000000000000000000000815260040180806020018281038252600e8152602001807f6572726f725f6e6f74466f756e6400000000000000000000000000000000000081525060200191505060405180910390fd5b6000600860008373ffffffffffffffffffffffffffffffffffffffff1673ffffffffffffffffffffffffffffffffffffffff16815260200190815260200160002060006101000a81548160ff02191690831515021790555060016005600082825403925050819055507f8176fc5412eb5076fee7f1a264915b808c24d495c2698c189030e5200e707d2581604051808273ffffffffffffffffffffffffffffffffffffffff1673ffffffffffffffffffffffffffffffffffffffff16815260200191505060405180910390a150565b600360009054906101000a900473ffffffffffffffffffffffffffffffffffffffff1673ffffffffffffffffffffffffffffffffffffffff163373ffffffffffffffffffffffffffffffffffffffff16141515610aaa576040517f08c379a00000000000000000000000000000000000000000000000000000000081526004018080602001828103825260098152602001807f6f6e6c794f776e6572000000000000000000000000000000000000000000000081525060200191505060405180910390fd5b600860008273ffffffffffffffffffffffffffffffffffffffff1673ffffffffffffffffffffffffffffffffffffffff16815260200190815260200160002060009054906101000a900460ff16151515610b6c576040517f08c379a00000000000000000000000000000000000000000000000000000000081526004018080602001828103825260138152602001807f6572726f725f616c72656164794578697374730000000000000000000000000081525060200191505060405180910390fd5b6001600860008373ffffffffffffffffffffffffffffffffffffffff1673ffffffffffffffffffffffffffffffffffffffff16815260200190815260200160002060006101000a81548160ff02191690831515021790555060016005600082825401925050819055507f4205b1cf2b33c8147cc02b8fb0c9d3ff098218a686b0dd94b1e35d3c3968ad8c81604051808273ffffffffffffffffffffffffffffffffffffffff1673ffffffffffffffffffffffffffffffffffffffff16815260200191505060405180910390a150565b60055481565b600060026000868152602001908152602001600020549050600054810142111515610cd4576040517f08c379a000000000000000000000000000000000000000000000000000000000815260040180806020018281038252600c8152602001807f6572726f725f66726f7a656e000000000000000000000000000000000000000081525060200191505060405180910390fd5b610ce085858585611758565b1515610d54576040517f08c379a000000000000000000000000000000000000000000000000000000000815260040180806020018281038252600b8152602001807f6572726f725f70726f6f6600000000000000000000000000000000000000000081525060200191505060405180910390fd5b610d5e8484611a2f565b5050505050565b60008082111515610dde576040517f08c379a00000000000000000000000000000000000000000000000000000000081526004018080602001828103825260128152602001807f6572726f725f7a65726f5769746864726177000000000000000000000000000081525060200191505060405180910390fd5b610e3082600760003373ffffffffffffffffffffffffffffffffffffffff1673ffffffffffffffffffffffffffffffffffffffff16815260200190815260200160002054611b2d90919063ffffffff16565b9050600660003373ffffffffffffffffffffffffffffffffffffffff1673ffffffffffffffffffffffffffffffffffffffff168152602001908152602001600020548111151515610ee9576040517f08c379a000000000000000000000000000000000000000000000000000000000815260040180806020018281038252600f8152602001807f6572726f725f6f7665726472616674000000000000000000000000000000000081525060200191505060405180910390fd5b80600760003373ffffffffffffffffffffffffffffffffffffffff1673ffffffffffffffffffffffffffffffffffffffff16815260200190815260200160002081905550600960009054906101000a900473ffffffffffffffffffffffffffffffffffffffff1673ffffffffffffffffffffffffffffffffffffffff1663a9059cbb33846040518363ffffffff167c0100000000000000000000000000000000000000000000000000000000028152600401808373ffffffffffffffffffffffffffffffffffffffff1673ffffffffffffffffffffffffffffffffffffffff16815260200182815260200192505050602060405180830381600087803b158015610ff257600080fd5b505af1158015611006573d6000803e3d6000fd5b505050506040513d602081101561101c57600080fd5b810190808051906020019092919050505015156110a1576040517f08c379a000000000000000000000000000000000000000000000000000000000815260040180806020018281038252600e8152602001807f6572726f725f7472616e7366657200000000000000000000000000000000000081525060200191505060405180910390fd5b5050565b60006110e2853386868680806020026020016040519081016040528093929190818152602001838360200280828437820191505050505050610c41565b611134600760003373ffffffffffffffffffffffffffffffffffffffff1673ffffffffffffffffffffffffffffffffffffffff1681526020019081526020016000205485611b4e90919063ffffffff16565b905061113f81610d65565b5050505050565b600460009054906101000a900473ffffffffffffffffffffffffffffffffffffffff1673ffffffffffffffffffffffffffffffffffffffff163373ffffffffffffffffffffffffffffffffffffffff1614151561120b576040517f08c379a00000000000000000000000000000000000000000000000000000000081526004018080602001828103825260108152602001807f6f6e6c7950656e64696e674f776e65720000000000000000000000000000000081525060200191505060405180910390fd5b600460009054906101000a900473ffffffffffffffffffffffffffffffffffffffff1673ffffffffffffffffffffffffffffffffffffffff16600360009054906101000a900473ffffffffffffffffffffffffffffffffffffffff1673ffffffffffffffffffffffffffffffffffffffff167f8be0079c531659141344cd1fd0a4f28419497f9722a3daafe3b4186f6b6457e060405160405180910390a3600460009054906101000a900473ffffffffffffffffffffffffffffffffffffffff16600360006101000a81548173ffffffffffffffffffffffffffffffffffffffff021916908373ffffffffffffffffffffffffffffffffffffffff1602179055506000600460006101000a81548173ffffffffffffffffffffffffffffffffffffffff021916908373ffffffffffffffffffffffffffffffffffffffff160217905550565b60066020528060005260406000206000915090505481565b606082828080601f01602080910402602001604051908101604052809392919081815260200183838082843782019150505050505090506113aa858583611b6f565b151561141e576040517f08c379a00000000000000000000000000000000000000000000000000000000081526004018080602001828103825260128152602001807f6572726f725f6e6f745065726d6974746564000000000000000000000000000081525060200191505060405180910390fd5b426002600087815260200190815260200160002081905550836001600087815260200190815260200160002081600019169055507f7ef0f736c45ddbabe72b264d65ca088383fb45bcd5511b52df923b4580c9aaa08542868460405180858152602001848152602001836000191660001916815260200180602001828103825283818151815260200191508051906020019080838360005b838110156114d15780820151818401526020810190506114b6565b50505050905090810190601f1680156114fe5780820380516001836020036101000a031916815260200191505b509550505050505060405180910390a15050505050565b6000806000849250600091505b83518260ff1610156116bc57838260ff1681518110151561153f57fe5b906020019060200201519050600060010281600019161415611560576116af565b8060001916836000191610156116115782816040516020018083600019166000191681526020018260001916600019168152602001925050506040516020818303038152906040526040518082805190602001908083835b6020831015156115dd57805182526020820191506020810190506020830392506115b8565b6001836020036101000a038019825116818451168082178552505050505050905001915050604051809103902092506116ae565b80836040516020018083600019166000191681526020018260001916600019168152602001925050506040516020818303038152906040526040518082805190602001908083835b60208310151561167e5780518252602082019150602081019050602083039250611659565b6001836020036101000a038019825116818451168082178552505050505050905001915050604051809103902092505b5b8180600101925050611522565b505092915050565b60076020528060005260406000206000915090505481565b60005481565b60026020528060005260406000206000915090505481565b60016020528060005260406000206000915090505481565b600360009054906101000a900473ffffffffffffffffffffffffffffffffffffffff1681565b60086020528060005260406000206000915054906101000a900460ff1681565b60008060008585604051602001808373ffffffffffffffffffffffffffffffffffffffff1673ffffffffffffffffffffffffffffffffffffffff166c01000000000000000000000000028152601401828152602001925050506040516020818303038152906040526040518082805190602001908083835b6020831015156117f557805182526020820191506020810190506020830392506117d0565b6001836020036101000a038019825116818451168082178552505050505050905001915050604051809103902091506001600088815260200190815260200160002054905060006001028160001916141515156118ba576040517f08c379a00000000000000000000000000000000000000000000000000000000081526004018080602001828103825260138152602001807f6572726f725f626c6f636b4e6f74466f756e640000000000000000000000000081525060200191505060405180910390fd5b6118c48285611515565b6000191681600019161492505050949350505050565b600460009054906101000a900473ffffffffffffffffffffffffffffffffffffffff1681565b600360009054906101000a900473ffffffffffffffffffffffffffffffffffffffff1673ffffffffffffffffffffffffffffffffffffffff163373ffffffffffffffffffffffffffffffffffffffff161415156119c5576040517f08c379a00000000000000000000000000000000000000000000000000000000081526004018080602001828103825260098152602001807f6f6e6c794f776e6572000000000000000000000000000000000000000000000081525060200191505060405180910390fd5b80600460006101000a81548173ffffffffffffffffffffffffffffffffffffffff021916908373ffffffffffffffffffffffffffffffffffffffff16021790555050565b600960009054906101000a900473ffffffffffffffffffffffffffffffffffffffff1681565b80600660008473ffffffffffffffffffffffffffffffffffffffff1673ffffffffffffffffffffffffffffffffffffffff16815260200190815260200160002054101515611ae5576040517f08c379a00000000000000000000000000000000000000000000000000000000081526004018080602001828103825260118152602001807f6572726f725f6f6c644561726e696e677300000000000000000000000000000081525060200191505060405180910390fd5b80600660008473ffffffffffffffffffffffffffffffffffffffff1673ffffffffffffffffffffffffffffffffffffffff168152602001908152602001600020819055505050565b6000808284019050838110151515611b4457600080fd5b8091505092915050565b600080838311151515611b6057600080fd5b82840390508091505092915050565b6000600360009054906101000a900473ffffffffffffffffffffffffffffffffffffffff1673ffffffffffffffffffffffffffffffffffffffff163373ffffffffffffffffffffffffffffffffffffffff1614905093925050505600a165627a7a72305820b9b2e32ec0a387aa09d1fadde29a58c3d662e7f84ed466e4db2d3101ec535da10029",
  "source": "pragma solidity ^0.4.24;\n\nimport \"openzeppelin-solidity/contracts/math/SafeMath.sol\";\nimport \"openzeppelin-solidity/contracts/token/ERC20/IERC20.sol\";\n\nimport \"./AbstractRootChain.sol\";\nimport \"./Ownable.sol\";\n\n/**\n * Monoplasma that is managed by an owner, likely the side-chain operator\n * Owner can add and remove recipients.\n */\ncontract Monoplasma is AbstractRootChain, Ownable {\n    using SafeMath for uint256;\n\n    event RecipientAdded(address recipient);\n    event RecipientRemoved(address recipient);\n\n    uint public recipientCount;\n    mapping (address => uint) public earnings;\n    mapping (address => uint) public withdrawn;\n    mapping (address => bool) public isActive;\n\n    IERC20 public token;\n\n    constructor(address tokenAddress, uint blockFreezePeriodSeconds)\n        AbstractRootChain(blockFreezePeriodSeconds)\n        Ownable() public {\n        token = IERC20(tokenAddress);\n    }\n\n    function addRecipient(address addr) public onlyOwner {\n        require(!isActive[addr], \"error_alreadyExists\");\n        isActive[addr] = true;\n        recipientCount += 1;\n        emit RecipientAdded(addr);\n    }\n\n    function removeRecipient(address addr) public onlyOwner {\n        require(isActive[addr], \"error_notFound\");\n        isActive[addr] = false;\n        recipientCount -= 1;\n        emit RecipientRemoved(addr);\n    }\n\n    /**\n     * Owner creates the side-chain blocks\n     */\n    function canRecordBlock(uint, bytes32, string) internal returns (bool) {\n        return msg.sender == owner;\n    }\n\n    /**\n     * Called from AbstractRootChain.proveSidechainBalance\n     * ProveSidechainBalance can be called directly to withdraw less than the whole share,\n     *   or just \"cement\" the earnings so far into root chain even without withdrawing\n     *   (though it's probably a lot more expensive than withdrawing itself...)\n     */\n    function onVerifySuccess(address account, uint totalEarnings) internal {\n        require(earnings[account] < totalEarnings, \"error_oldEarnings\");\n        earnings[account] = totalEarnings;\n    }\n\n    /**\n     * Withdraw the whole revenue share from sidechain in one transaction\n     * @param blockTimestamp of the leaf to verify\n     * @param totalEarnings in the side-chain\n     * @param proof list of hashes to prove the totalEarnings\n     */\n    function withdrawAll(uint blockTimestamp, uint totalEarnings, bytes32[] proof) external {\n        proveSidechainBalance(blockTimestamp, msg.sender, totalEarnings, proof);\n        uint withdrawable = totalEarnings.sub(withdrawn[msg.sender]);\n        withdraw(withdrawable);\n    }\n\n    /**\n     * @dev It is up to the sidechain implementation to make sure\n     * @dev  always token balance >= sum of earnings - sum of withdrawn\n     */\n    function withdraw(uint amount) public {\n        require(amount > 0, \"error_zeroWithdraw\");\n        uint w = withdrawn[msg.sender].add(amount);\n        require(w <= earnings[msg.sender], \"error_overdraft\");\n        withdrawn[msg.sender] = w;\n        require(token.transfer(msg.sender, amount), \"error_transfer\");\n    }\n}\n",
  "sourcePath": "/Users/jtakalai/Documents/workspace/monoplasma/contracts/Monoplasma.sol",
  "compiler": {
    "name": "solc",
    "version": "0.4.25+commit.59dbf8f1.Emscripten.clang"
  },
  "schemaVersion": "3.0.0-beta.1",
  "updatedAt": "2018-12-10T07:21:20.332Z",
  "devdoc": {
    "methods": {
      "calculateRootHash(bytes32,bytes32[])": {
        "params": {
          "hash": "of the leaf to verify",
          "others": "list of hashes of \"other\" branches"
        }
      },
      "claimOwnership()": {
        "details": "Allows the pendingOwner address to finalize the transfer."
      },
      "proveSidechainBalance(uint256,address,uint256,bytes32[])": {
        "params": {
          "account": "whose balances will be verified",
          "balance": "side-chain account balance",
          "proof": "list of hashes to prove the totalEarnings",
          "rootChainBlockNumber": "the block \"after\" which the balances were recorded"
        }
      },
      "recordBlock(uint256,bytes32,string)": {
        "params": {
          "ipfsHash": "where the whole balances object can be retrieved in JSON format",
          "rootChainBlockNumber": "the block \"after\" which the balances were recorded",
          "rootHash": "root of the balances merkle-tree"
        }
      },
      "transferOwnership(address)": {
        "details": "Allows the current owner to set the pendingOwner address.",
        "params": {
          "newOwner": "The address to transfer ownership to."
        }
      },
      "withdraw(uint256)": {
        "details": "It is up to the sidechain implementation to make surealways token balance >= sum of earnings - sum of withdrawn"
      },
      "withdrawAll(uint256,uint256,bytes32[])": {
        "params": {
          "blockTimestamp": "of the leaf to verify",
          "proof": "list of hashes to prove the totalEarnings",
          "totalEarnings": "in the side-chain"
        }
      }
    }
  },
  "userdoc": {
    "methods": {
      "calculateRootHash(bytes32,bytes32[])": {
        "notice": "Calculate root hash of a Merkle tree, given"
      },
      "proofIsCorrect(uint256,address,uint256,bytes32[])": {
        "notice": "Check the merkle proof of balance in the given side-chain block for given account"
      },
      "proveSidechainBalance(uint256,address,uint256,bytes32[])": {
        "notice": "proveSidechainBalance can be used to record the sidechain balances into root chain"
      },
      "recordBlock(uint256,bytes32,string)": {
        "notice": "For convenience, also publish the ipfsHash of the balance book JSON object"
      },
      "withdrawAll(uint256,uint256,bytes32[])": {
        "notice": "Withdraw the whole revenue share from sidechain in one transaction"
      }
    }
  }
}